:100000000C94B4000C9477050C94FB040C94D10070
:100010000C94D1000C94D1000C94D1000C942504C4
:100020000C94D1000C94D1000C94D1000C94D1000C
:100030000C94D1000C94D1000C94D1000C94D100FC
:100040000C94D1000C94D1000C94D1000C94D100EC
:100050000C94D1000C94D1000C94D1000C94D100DC
:100060000C94D1000C94D100000306090C0F12155A
:10007000181C1F2225282B2E303336393C3F414493
:1000800047494C4E515355585A5C5E6062646668ED
:100090006A6C6D6F70727375767778797A7B7C7C19
:1000A0007D7E7E7F7F7F7F7F7F7F7F7F7F7F7E7E66
:1000B0007D7C7C7B7A79787776757372706F6D6CE6
:1000C0006A68666462605E5C5A585553514E4C498A
:1000D0004744413F3C393633302E2B2825221F1C04
:1000E0001815120F0C09060300FCF9F6F3F0EDEAFF
:1000F000E7E3E0DDDAD7D4D1CFCCC9C6C3C0BEBBFD
:10010000B8B6B3B1AEACAAA7A5A3A19F9D9B999782
:10011000959392908F8D8C8A898887868584838336
:1001200082818180808080808080808080808181C9
:100130008283838485868788898A8C8D8F90929329
:100140009597999B9D9FA1A3A5A7AAACAEB1B3B665
:10015000B8BBBEC0C3C6C9CCCFD1D4D7DADDE0E3CB
:10016000E7EAEDF0F3F6F9FC11241FBECFEFD8E07B
:10017000DEBFCDBF11E0A0E0B1E0E8EFFDE002C0DE
:1001800005900D92AC31B107D9F721E0ACE1B1E0B7
:1001900001C01D92AB3BB207E1F70E9486050C94AB
:1001A000FA060C9400001092B9008CE08093B8001D
:1001B00084E08093BC00089584EA8093BC00809121
:1001C000BC0087FFFCCF089584E98093BC000895AC
:1001D0008093BB0084E88093BC008091BC0087FFC3
:1001E000FCCF089584EC8093BC008091BC0087FF15
:1001F000FCCF8091BB00089584E88093BC0080917F
:10020000BC0087FFFCCF8091BB0008958091B900AE
:10021000887F0895569A84B1866084B983E883BD47
:1002200084BD81E085BD99EA909380008093810030
:1002300013BC0895FC01FF27E859FF4F2491FC01EE
:10024000EB5AFF4FFF27E859FF4F449126039001D7
:100250001124232F330F330B4603B0011124672FD2
:10026000770F770BC901860F971F9195819591099B
:10027000803891059CF480384FEF940794F480E027
:1002800090E0205827BD605870E07093890060931B
:10029000880090938B0080938A0008958FEF90E000
:1002A000F0CF805890E0EDCF239A1092B00081E01B
:1002B0008093B10082E080937000EAE3F1E0119254
:1002C00081E0EA3BF807D9F70895E9E6F0E080819C
:1002D00088608083E99A0895EAE3F1E0119281E071
:1002E000EA3BF807D9F70895FC01F695E795F695EE
:1002F000E795F695E795EF77FF27E65CFE4F877069
:10030000992721E030E0A90102C0440F551F8A95CA
:10031000E2F7CA01611105C080959081892380832D
:1003200008959081892B80830895660F771FFB01C4
:10033000E45FFE4F20813181820F931FFC01F6950F
:10034000E795F695E795F695E795EF77FF27E65C55
:10035000FE4F8770992721E030E041110CC0A901C0
:1003600002C0440F551F8A95E2F7CA01809590811B
:10037000892380830895A90102C0440F551F8A95DF
:10038000E2F7CA019081892B808308959C013E5F2A
:10039000F901F695E795F695E795F695E795EF77E8
:1003A000FF27E65CFE4F2770332741E050E0DA017B
:1003B00002C0AA0FBB1F2A95E2F79D0160FDEBC0AA
:1003C0002095308123232083262F30E035952795F3
:1003D000AC01405A5C4FFA01F695E795F695E79522
:1003E000F695E795EF77FF27E65CFE4F47705527B8
:1003F00061E070E0DB0102C0AA0FBB1F4A95E2F783
:10040000AD0120FDEDC040955081452340833595D9
:100410002795AC014A545D4FFA01F695E795F6959C
:10042000E795F695E795EF77FF27E65CFE4F477077
:10043000552761E070E0DB0102C0AA0FBB1F4A959F
:10044000E2F7AD0120FDC8C04095508145234083AF
:1004500035952795AC0145555F4FFA01F695E7951F
:10046000F695E795F695E795EF77FF27E65CFE4F63
:100470004770552761E070E0DB0102C0AA0FBB1F87
:100480004A95E2F7AD0120FDA3C040955081452378
:10049000408335952795AC0140565D4FFA01F6959E
:1004A000E795F695E795F695E795EF77FF27E65CF4
:1004B000FE4F4770552761E070E0DB0102C0AA0FD4
:1004C000BB1F4A95E2F7AD0120FD7EC040955081EB
:1004D0004523408335952795AC01465B5C4FFA0177
:1004E000F695E795F695E795F695E795EF77FF276B
:1004F000E65CFE4F4770552761E070E0DB0102C00B
:10050000AA0FBB1F4A95E2F7AD0120FD59C04095E7
:1005100050814523408335952795AC014B5A5E4F5A
:10052000FA01F695E795F695E795F695E795EF7755
:10053000FF27E65CFE4F4770552761E070E0DB0166
:1005400002C0AA0FBB1F4A95E2F7AD0120FD34C0DF
:10055000409550814523408335952795FC01F695BC
:10056000E795F695E795F695E795EF77FF27E65C33
:10057000FE4F87709927232B91F421E030E0D901B9
:1005800002C0AA0FBB1F8A95E2F7CD01809590812A
:100590008923808308953081232B208315CF21E088
:1005A00030E0A90102C0440F551F8A95E2F7CA0145
:1005B0009081892B808308955081452B4083CCCF37
:1005C0005081452B4083A7CF5081452B408382CF5C
:1005D0005081452B40835DCF5081452B408338CFE0
:1005E0005081452B408313CFFB01E050FF4F20810A
:1005F000AC015E5FFA01F695E795F695E795F695FD
:10060000E795EF77FF27E65CFE4F4770552761E0DF
:1006100070E0DB0102C0AA0FBB1F4A95E2F7AD01F3
:1006200020FDEAC0409530814323408330E035957A
:100630002795AC01405A5C4FFA01F695E795F6957F
:10064000E795F695E795EF77FF27E65CFE4F477055
:10065000552761E070E0DB0102C0AA0FBB1F4A957D
:10066000E2F7AD0120FDEDC0409550814523408368
:1006700035952795AC014A545D4FFA01F695E795FB
:10068000F695E795F695E795EF77FF27E65CFE4F41
:100690004770552761E070E0DB0102C0AA0FBB1F65
:1006A0004A95E2F7AD0120FDC8C040955081452331
:1006B000408335952795AC0145555F4FFA01F69576
:1006C000E795F695E795F695E795EF77FF27E65CD2
:1006D000FE4F4770552761E070E0DB0102C0AA0FB2
:1006E000BB1F4A95E2F7AD0120FDA3C040955081A4
:1006F0004523408335952795AC0140565D4FFA015F
:10070000F695E795F695E795F695E795EF77FF2748
:10071000E65CFE4F4770552761E070E0DB0102C0E8
:10072000AA0FBB1F4A95E2F7AD0120FD7EC04095A0
:1007300050814523408335952795AC01465B5C4F3E
:10074000FA01F695E795F695E795F695E795EF7733
:10075000FF27E65CFE4F4770552761E070E0DB0144
:1007600002C0AA0FBB1F4A95E2F7AD0120FD59C098
:10077000409550814523408335952795AC014B5AD0
:100780005E4FFA01F695E795F695E795F695E795AC
:10079000EF77FF27E65CFE4F4770552761E070E07A
:1007A000DB0102C0AA0FBB1F4A95E2F7AD0120FD95
:1007B00034C0409550814523408335952795FC01F1
:1007C000F695E795F695E795F695E795EF77FF2788
:1007D000E65CFE4F87709927232B91F421E030E0EF
:1007E000D90102C0AA0FBB1F8A95E2F7CD018095FF
:1007F00090818923808308953081432B408316CFD5
:1008000021E030E0A90102C0440F551F8A95E2F7AC
:10081000CA019081892B808308955081452B4083A4
:10082000CCCF5081452B4083A7CF5081452B4083AF
:1008300082CF5081452B40835DCF5081452B408333
:1008400038CF5081452B408313CF1F920F920FB6A4
:100850000F9211242F933F934F935F936F937F9346
:100860008F939F93AF93BF93EF93FF938091360144
:1008700090913701A0913801B0913901CD01AA279B
:10088000BB27909322018093210160912B018091DD
:100890002101909122010E941A0140912C01509156
:1008A0002D0160912E0170912F0180913601909160
:1008B0003701A0913801B0913901840F951FA61F0F
:1008C000B71F8093360190933701A0933801B093FE
:1008D0003901809135018F5F80933501209134017A
:1008E000082E000C990B30E08217930709F458C0CA
:1008F000209121013091220180911C0190911D01D4
:10090000820F931FFC01F695E795F695E795F6950E
:10091000E795EF77FF27E65CFE4F208130E0877098
:100920009927A90102C0559547958A95E2F740FDA0
:1009300035C02B982091230130912401409125014D
:100940005091260160912701709128018091290121
:1009500090912A01A1E00E94EE062093230130939A
:100960002401409325015093260160932701709341
:1009700028018093290190932A01FF91EF91BF9163
:10098000AF919F918F917F916F915F914F913F9127
:100990002F910F900FBE0F901F9018952B9ACACFD2
:1009A00040912C0150912D0160912E0170912F01E9
:1009B0008091300190913101A0913201B0913301C9
:1009C000481759076A077B0798F480912C0190918A
:1009D0002D01A0912E01B0912F010196A11DB11DF5
:1009E00080932C0190932D01A0932E01B0932F01A1
:1009F000109235017DCF1F920F920FB60F921124E6
:100A00008F939F93809121019091220193709093F5
:100A1000200180931F0181E080931E019F918F919F
:100A20000F900FBE0F901F901895E9E6F0E08081BF
:100A300082608083E89A0E94DC0080ED0E94E800DA
:100A400087E00E94E80080E10E94E8000C94E40046
:100A5000CF93DF93EC010E94DC0080ED0E94E80060
:100A600080E00E94E80088810E94E80089810E945D
:100A7000E8008A810E94E8008B810E94E8008C8156
:100A80000E94E8008D810E94E8008E810E94E800AB
:100A9000DF91CF910C94E400CF93DF93EC010E949F
:100AA000DC0080ED0E94E80080E00E94E8000E94E7
:100AB000E4000E94DC0081ED0E94E8000E94F20048
:100AC00088830E94F20089830E94F2008A830E9438
:100AD000F2008B830E94F2008C830E94F2008D83CF
:100AE0000E94FC008E83DF91CF910C94E4001F9252
:100AF0000F920FB60F9211248F9381E08093BA0169
:100B00008F910F900FBE0F901F9018950E940A01B1
:100B10000E94650178941092300110923101109278
:100B20003201109233015E9885B1897F85B91092A8
:100B30001E0188E893E1EFE8F1E03197F1F700C09A
:100B400000000197C1F780911E018111F0CF5E98DE
:100B500085B1897F85B90E9454018FEF80932B0165
:100B600088EC90E0EFE8F1E03197F1F700C0000089
:100B70000197C1F780E880932B0180E090E0A1E02D
:100B8000B0E08093300190933101A0933201B09393
:100B9000330184E1809334010E941505CFEF20904A
:100BA000230130902401409025015090260160904F
:100BB0002701709028018090290190902A0180914E
:100BC0002C0190912D01A0912E01B0912F01813027
:100BD0009042A105B10508F48DC08091300190913B
:100BE0003101A0913201B0913301D9E0B695A795BA
:100BF00097958795DA95D1F780589F4F8F3F91054C
:100C000019F010F08FEF90E080932B01F2E1AF2EFE
:100C1000AAE7BA2EC12CD12CE12CF12C00E010E077
:100C20009101A201B301C4010E949106B8ECAB2E60
:100C3000B12C0E948F06D22FC21709F459C084E24A
:100C4000A82E94EFB92E9101A201B301C4010E9414
:100C50009106ECE3AE2EB12C0E948F06C22FF0E776
:100C6000AF2EA8E3BA2EB9E3CB2E9101A201B301B6
:100C7000C4010E949106ECE3AE2EB12CC12C0E945F
:100C80008F06922E3DEC939E812C1124869486949F
:100C90008694682D70E080E090E00E94F4028AE083
:100CA000889E90181124692D70E083E290E00E94E4
:100CB000F402EDECCE9F912C112496949694969488
:100CC000692D70E08BE590E00E94F402FAE09F9EAF
:100CD000C01911246C2F70E08EE790E00E94F4029E
:100CE000D0FD15C06AE070E08FE390E00E94F4024E
:100CF000CD2F55CF80911F019091200120E73EEF2D
:100D0000281B390B30931D0120931C017FCF6BE012
:100D100070E08FE390E00E94F402CD2F40CF689402
:100D200001C0E8948F929F92CF93DF930E949D061B
:100D3000DF91CF919F908F90089588249924F4019A
:100D4000E401B0E49F93AA279A158B049C04ED0557
:100D5000FE05CF05D007A10798F4AD2FDC2FCF2FCC
:100D6000FE2FE92D982C892E982F872F762F652F0F
:100D7000542F432F322F2227B85031F7BF9127C06D
:100D80001B2EBF91BB27220F331F441F551F661F09
:100D9000771F881F991F881C991CEE1FFF1FCC1FEF
:100DA000DD1FAA1FBB1F8A149B04EC05FD05CE05A1
:100DB000DF05A007B10748F08A189B08EC09FD0978
:100DC000CE09DF09A00BB10B21601A94E1F62EF4D5
:100DD0009401AF01BE01CD01000C08950024A7FDD0
:100DE00000942A0F301D401D501D601D701D801D78
:080DF000901D0895F894FFCF57
:100DF8003F065B4F666D7D077F6F800000026003D2
:0C0E0800B602AB00A0024A035501000036
:00000001FF
