:100000000C94B4000C94D1000C94D1000C94D10049
:100010000C94D1000C94D1000C94D1000C94D3001A
:100020000C94D1000C94D1000C94D1000C94D1000C
:100030000C94D1000C94DA020C94D1000C94D100F1
:100040000C94CB020C94D1000C94D1000C94D100F0
:100050000C94D1000C94D1000C94D1000C94D100DC
:100060000C94D1000C94D100808386898C8F92955A
:10007000989C9FA2A5A8ABAEB0B3B6B9BCBFC1C493
:10008000C7C9CCCED1D3D5D8DADCDEE0E2E4E6E8ED
:10009000EAECEDEFF0F2F3F5F6F7F8F9FAFBFCFC19
:1000A000FDFEFEFFFFFFFFFFFFFFFFFFFFFFFEFE66
:1000B000FDFCFCFBFAF9F8F7F6F5F3F2F0EFEDECE6
:1000C000EAE8E6E4E2E0DEDCDAD8D5D3D1CECCC98A
:1000D000C7C4C1BFBCB9B6B3B0AEABA8A5A29F9C04
:1000E0009895928F8C898683807C797673706D6AFF
:1000F0006763605D5A5754514F4C494643403E3BFD
:10010000383633312E2C2A272523211F1D1B191782
:10011000151312100F0D0C0A090807060504030336
:1001200002010100000000000000000000000101C9
:100130000203030405060708090A0C0D0F10121329
:100140001517191B1D1F212325272A2C2E31333665
:10015000383B3E404346494C4F5154575A5D6063CB
:10016000676A6D707376797C11241FBECFEFD8E07B
:10017000DEBFCDBF11E0A0E0B1E0EAEEF6E002C0E4
:1001800005900D92A232B107D9F721E0A2E2B1E0C9
:1001900001C01D92A93AB207E1F70E94F6020C9441
:1001A00073030C9400001F920F920FB60F9211244C
:1001B0002F933F934F935F936F937F938F939F936F
:1001C000AF93BF93EF93FF938091A2019091A3010E
:1001D000A091A401B091A501CD01AA27BB27FC01E4
:1001E000FF27E859FF4FE491E0930501FC01EB5A2A
:1001F000FF4FFF27E859FF4FE491E0930601FC0110
:10020000E655FF4FFF27E859FF4FE491E0930701C0
:10021000FC0133E0F695E7953A95E1F7EF77FF2794
:10022000EE5DFE4F208130E087709927A90102C062
:10023000559547958A95E2F740FF02C02B9A01C079
:100240002B9840910101509102016091030170913E
:1002500004018091A2019091A301A091A401B09109
:10026000A501840F951FA61FB71F8093A20190932D
:10027000A301A093A401B093A501FF91EF91BF91B9
:10028000AF919F918F917F916F915F914F913F912E
:100290002F910F900FBE0F901F90189587309105EA
:1002A00040F4880F991FFC01E85FFE4F8081918127
:1002B000089580E090E008959C012770332766231D
:1002C00099F097FD079643E0959587954A95E1F754
:1002D000FC01EE5DFE4F81E090E001C0880F2A95A1
:1002E000EAF79081892B13C097FD079633E0959527
:1002F00087953A95E1F7FC01EE5DFE4F81E090E0D5
:1003000001C0880F2A95EAF7809590818923808320
:1003100008956730710540F4FB01EE0FFF1FE85FA1
:10032000FE4F2081318102C020E030E0642F820F37
:10033000931F0C945C01EF92FF920F931F93CF9346
:10034000DF937C01162F042FC0E0D0E010FF05C022
:10035000402FBE01C7010E94890116952196C83021
:10036000D105A1F7DF91CF911F910F91FF90EF90F1
:1003700008951F93CF93DF93122FEA01CA5EDE4FD9
:100380000E941B03DC01CB01412F6881DF91CF91DB
:100390001F910C949B01569A84B1866084B90E9487
:1003A000B2021092A2011092A3011092A401109225
:1003B000A50178940895FF920F931F93CF93DF9335
:1003C0008091010190910201A0910301B09104017B
:1003D00081159446A105B105B0F480EA8A95F1F73C
:1003E0008091010190910201A0910301B09104015B
:1003F0000196A11DB11D8093010190930201A0936C
:100400000301B09304018091010190910201A09138
:100410000301B091040181309842A105B10508F0B3
:10042000239A0091A7011091A801C80168EE73E01A
:100430000E940703009709F07EC0C09100018AE086
:10044000F82E8C2F6F2D0E94FB02D92FE82FF0E0A1
:10045000EA5EFE4F40E0608180E090E00E949B01F8
:10046000ED2FF0E0EA5EFE4F40E060818EE190E02B
:100470000E949B01D091A6018D2F6F2D0E94FB023F
:10048000F92EE82FF0E0EA5EFE4F40E060818AE559
:1004900090E00E949B01EF2DF0E0EA5EFE4F40E00D
:1004A000608188E790E00E949B01DF5FDC3319F0F8
:1004B000D093A6010AC01092A601CF5FC83119F0EF
:1004C000C093000102C01092000180910001DAE0A7
:1004D0006D2F0E94FB02C92FE82FF0E0EA5EFE4F6D
:1004E00041E0608180E090E00E949B01EC2FF0E011
:1004F000EA5EFE4F41E060818EE190E00E949B0148
:100500008091A6016D2F0E94FB02C92FE82FF0E019
:10051000EA5EFE4F41E060818AE590E00E949B0127
:10052000EC2FF0E0EA5EFE4F41E0608188E790E06A
:100530000E949B0103C0843F914010F441E001C040
:1005400040E060E88CE390E00E949B010F5F1F4F4A
:100550001093A8010093A701DF91CF911F910F91F4
:10056000FF90089583EA84BD81E085BD99EA909368
:1005700080008093810092E09093B0008093B1005E
:10058000F89480936E0080936F00909370008FEFCB
:100590008093B30008951F920F920FB60F9211240B
:1005A0008F938091070187BD8F910F900FBE0F90A1
:1005B0001F9018951F920F920FB60F9211248F93D0
:1005C0009F938091060190E090938900809388002A
:1005D0008091050190E090938B0080938A009F9119
:1005E0008F910F900FBE0F901F9018950E94CB0116
:1005F0000E94DB01FDCF991B79E004C0991F96177B
:1006000008F0961B881F7A95C9F780950895AA1B54
:10061000BB1B51E107C0AA1FBB1FA617B70710F0ED
:10062000A61BB70B881F991F5A95A9F7809590951F
:10063000BC01CD0108950E94520388F09F5798F0A5
:10064000B92F9927B751B0F0E1F0660F771F881FD7
:10065000991F1AF0BA95C9F714C0B13091F00E94F1
:100660006C03B1E008950C946C03672F782F8827F2
:10067000B85F39F0B93FCCF3869577956795B39518
:10068000D9F73EF490958095709561957F4F8F4F87
:100690009F4F089557FD9058440F551F59F05F3FE5
:1006A00071F04795880F97FB991F61F09F3F79F094
:1006B00087950895121613061406551FF2CF469516
:1006C000F1DF08C0161617061806991FF1CF869598
:1006D0007105610508940895E894BB27662777277C
:0A06E000CB0197F90895F894FFCFBD
:1006EA000C0002000080808000026003B602AB00AA
:1006FA00A0024A0355013F065B4F666D7D077F6F77
:02070A0080006D
:00000001FF
