:100000000C94B4000C94D1000C94D1000C94D10049
:100010000C94D1000C94D1000C94D1000C94D3001A
:100020000C94D1000C94D1000C94D1000C94D1000C
:100030000C94D1000C945D010C94D1000C94D1006F
:100040000C944E010C94D1000C94D1000C94D1006E
:100050000C94D1000C94D1000C94D1000C94D100DC
:100060000C94D1000C94D100808386898C8F92955A
:10007000989C9FA2A5A8ABAEB0B3B6B9BCBFC1C493
:10008000C7C9CCCED1D3D5D8DADCDEE0E2E4E6E8ED
:10009000EAECEDEFF0F2F3F5F6F7F8F9FAFBFCFC19
:1000A000FDFEFEFFFFFFFFFFFFFFFFFFFFFFFEFE66
:1000B000FDFCFCFBFAF9F8F7F6F5F3F2F0EFEDECE6
:1000C000EAE8E6E4E2E0DEDCDAD8D5D3D1CECCC98A
:1000D000C7C4C1BFBCB9B6B3B0AEABA8A5A29F9C04
:1000E0009895928F8C898683807C797673706D6AFF
:1000F0006763605D5A5754514F4C494643403E3BFD
:10010000383633312E2C2A272523211F1D1B191782
:10011000151312100F0D0C0A090807060504030336
:1001200002010100000000000000000000000101C9
:100130000203030405060708090A0C0D0F10121329
:100140001517191B1D1F212325272A2C2E31333665
:10015000383B3E404346494C4F5154575A5D6063CB
:10016000676A6D707376797C11241FBECFEFD8E07B
:10017000DEBFCDBF11E0A0E0B1E0E4EEF6E002C0EA
:1001800005900D92AE31B107D9F721E0AEE1B1E0B3
:1001900001C01D92A83AB207E1F70E94F3020C9445
:1001A00070030C9400001F920F920FB60F9211244F
:1001B0002F933F934F935F936F937F938F939F936F
:1001C000AF93BF93EF93FF938091A1019091A20110
:1001D000A091A301B091A401CD01AA27BB27FC01E6
:1001E000FF27E859FF4FE491E0939E01FC01EB5A91
:1001F000FF4FFF27E859FF4FE491E0939F01FC0177
:10020000E655FF4FFF27E859FF4FE491E093A00127
:10021000FC0133E0F695E7953A95E1F7EF77FF2794
:10022000E25EFE4F208130E087709927A90102C06D
:10023000559547958A95E2F740FF02C02B9A01C079
:100240002B9840910101509102016091030170913E
:1002500004018091A1019091A201A091A301B0910C
:10026000A401840F951FA61FB71F8093A10190932F
:10027000A201A093A301B093A401FF91EF91BF91BC
:10028000AF919F918F917F916F915F914F913F912E
:100290002F910F900FBE0F901F9018951F920F92E5
:1002A0000FB60F9211248F938091A00187BD8F917B
:1002B0000F900FBE0F901F9018951F920F920FB6C0
:1002C0000F9211248F939F9380919F0190E09093C0
:1002D00089008093880080919E0190E090938B002C
:1002E00080938A009F918F910F900FBE0F901F9067
:1002F00018958730910540F4880F991FFC01EB5F3A
:10030000FE4F80819181089580E090E008959C01E6
:1003100027703327662399F097FD079643E095955C
:1003200087954A95E1F7FC01E25EFE4F81E090E09F
:1003300001C0880F2A95EAF79081892B13C097FD99
:10034000079633E0959587953A95E1F7FC01E25ED3
:10035000FE4F81E090E001C0880F2A95EAF7809572
:1003600090818923808308956730710540F4FB01F3
:10037000EE0FFF1FEB5FFE4F2081318102C020E0B6
:1003800030E0642F820F931F0C948701EF92FF924D
:100390000F931F93CF93DF937C01162F042FC0E0A0
:1003A000D0E010FF05C0402FBE01C7010E94B4017C
:1003B00016952196C830D105A1F7DF91CF911F91F5
:1003C0000F91FF90EF9008951F93CF93DF93122F1B
:1003D000EA01CD5EDE4F0E941803DC01CB01412F04
:1003E0006881DF91CF911F910C94C601569A84B118
:1003F000866084B983EA84BD81E085BD99EA9093E3
:1004000080008093810092E09093B0008093B100CF
:10041000F89480936E0080936F00909370008FEF3C
:100420008093B3001092A1011092A2011092A30137
:100430001092A40178940895FF920F931F93CF9385
:10044000DF938091010190910201A0910301B0918D
:10045000040181159446A105B105B0F480EA8A959E
:10046000F1F78091010190910201A0910301B091F7
:1004700004010196A11DB11D809301019093020119
:10048000A0930301B09304018091010190910201B6
:10049000A0910301B091040181309842A105B105FA
:1004A00008F0239A0091A6011091A701C80168EEF7
:1004B00073E00E940403009709F07EC0C091000120
:1004C0008AE0F82E8C2F6F2D0E94F802D92FE82F8A
:1004D000F0E0ED5EFE4F40E0608180E090E00E9441
:1004E000C601ED2FF0E0ED5EFE4F40E060818EE151
:1004F00090E00E94C601D091A5018D2F6F2D0E9422
:10050000F802F92EE82FF0E0ED5EFE4F40E060814A
:100510008AE590E00E94C601EF2DF0E0ED5EFE4F0F
:1005200040E0608188E790E00E94C601DF5FDC3335
:1005300019F0D093A5010AC01092A501CF5FC83170
:1005400019F0C093000102C01092000180910001D7
:10055000DAE06D2F0E94F802C92FE82FF0E0ED5E7F
:10056000FE4F41E0608180E090E00E94C601EC2FE8
:10057000F0E0ED5EFE4F41E060818EE190E00E9490
:10058000C6018091A5016D2F0E94F802C92FE82FA6
:10059000F0E0ED5EFE4F41E060818AE590E00E9470
:1005A000C601EC2FF0E0ED5EFE4F41E0608188E790
:1005B00090E00E94C60103C0843F914010F441E0E6
:1005C00001C040E060E88CE390E00E94C6010F5F4C
:1005D0001F4F1093A7010093A601DF91CF911F91A8
:1005E0000F91FF9008950E94F6010E941C02FDCF1A
:1005F000991B79E004C0991F961708F0961B881F75
:100600007A95C9F780950895AA1BBB1B51E107C0D5
:10061000AA1FBB1FA617B70710F0A61BB70B881F92
:10062000991F5A95A9F780959095BC01CD01089521
:100630000E944F0388F09F5798F0B92F9927B75120
:10064000B0F0E1F0660F771F881F991F1AF0BA9576
:10065000C9F714C0B13091F00E946903B1E0089568
:100660000C946903672F782F8827B85F39F0B93F5A
:10067000CCF3869577956795B395D9F73EF4909529
:100680008095709561957F4F8F4F9F4F089557FDCF
:100690009058440F551F59F05F3F71F04795880FF0
:1006A00097FB991F61F09F3F79F087950895121687
:1006B00013061406551FF2CF4695F1DF08C0161633
:1006C00017061806991FF1CF8695710561050894E4
:1006D0000895E894BB2766277727CB0197F90895FB
:0406E000F894FFCFBC
:1006E4000C0002000000026003B602AB00A0024A44
:0E06F4000355013F065B4F666D7D077F6F80EB
:00000001FF
