:100000000C94B4000C94D1000C94D1000C94D10049
:100010000C94D1000C94D1000C94D1000C94A80144
:100020000C94D1000C94D1000C94D1000C94D1000C
:100030000C94D1000C94F6000C94D1000C94D100D7
:100040000C94E7000C94D1000C94D1000C94D100D6
:100050000C94D1000C94D1000C94D1000C94D100DC
:100060000C94D1000C94D100808386898C8F92955A
:10007000989C9FA2A5A8ABAEB0B3B6B9BCBFC1C493
:10008000C7C9CCCED1D3D5D8DADCDEE0E2E4E6E8ED
:10009000EAECEDEFF0F2F3F5F6F7F8F9FAFBFCFC19
:1000A000FDFEFEFFFFFFFFFFFFFFFFFFFFFFFEFE66
:1000B000FDFCFCFBFAF9F8F7F6F5F3F2F0EFEDECE6
:1000C000EAE8E6E4E2E0DEDCDAD8D5D3D1CECCC98A
:1000D000C7C4C1BFBCB9B6B3B0AEABA8A5A29F9C04
:1000E0009895928F8C898683807C797673706D6AFF
:1000F0006763605D5A5754514F4C494643403E3BFD
:10010000383633312E2C2A272523211F1D1B191782
:10011000151312100F0D0C0A090807060504030336
:1001200002010100000000000000000000000101C9
:100130000203030405060708090A0C0D0F10121329
:100140001517191B1D1F212325272A2C2E31333665
:10015000383B3E404346494C4F5154575A5D6063CB
:10016000676A6D707376797C11241FBECFEFD8E07B
:10017000DEBFCDBF11E0A0E0B1E0ECEEF6E002C0E2
:1001800005900D92AE31B107D9F721E0AEE1B1E0B3
:1001900001C01D92A93AB207E1F70E945E020C94D9
:1001A00074030C940000569A84B1866084B983EA83
:1001B00084BD81E085BD99EA9093800080938100A1
:1001C000F89480936E0080936F00789408951F9246
:1001D0000F920FB60F9211248F938091020187BD69
:1001E0008F910F900FBE0F901F9018951F920F9236
:1001F0000FB60F9211248F939F938091010190E08D
:1002000090938900809388008091000190E0909302
:100210008B0080938A009F918F910F900FBE0F905B
:100220001F90189580E090E0FC01E75DFE4F108282
:10023000019680389105C1F70895239A82E0809352
:10024000B00091E09093B100809370008FEF8093A5
:10025000B3000C9412018730910540F4880F991F68
:10026000FC01EB5FFE4F80819181089580E090E07A
:100270000895AC0147705527662399F097FD0796BE
:1002800033E0959587953A95E1F7FC01E75DFE4FE0
:10029000208181E090E001C0880F4A95EAF7822B27
:1002A00013C097FD079623E0959587952A95E1F76A
:1002B000FC01E75DFE4F208181E090E001C0880FE6
:1002C0004A95EAF780958223808308956730710507
:1002D00040F4FB01EE0FFF1FEB5FFE4F20813181E9
:1002E00002C020E030E0642F820F931F0C9439018C
:1002F000EF92FF920F931F93CF93DF937C01162F02
:10030000042FC0E0D0E010FF05C0402FBE01C701A0
:100310000E94660116952196C830D105A1F7DF919C
:10032000CF911F910F91FF90EF9008951F93CF935E
:10033000DF93122FEA01CD5EDE4F0E941C03DC0129
:10034000CB01412F6881DF91CF911F910C947801EF
:100350001F920F920FB60F9211240F931F932F939A
:100360003F934F935F936F937F938F939F93AF933D
:10037000BF93EF93FF938091250190912601A09167
:100380002701B0912801CD01AA27BB27FC01FF2737
:10039000E859FF4FE491E0930001FC01EB5AFF4F55
:1003A000FF27E859FF4FE491E0930101FC01E65576
:1003B000FF4FFF27E859FF4FE491E09302010091BE
:1003C0001F011091200120912101309122014091C3
:1003D0002501509126016091270170912801400F5D
:1003E000511F621F731F4093250150932601609394
:1003F000270170932801FC0133E0F695E7953A95C3
:10040000E1F7EF77FF27E75DFE4F208130E087704F
:100410009927A90102C0559547958A95E2F740FFB3
:100420000DC080911F0190912001A0912101B091F8
:10043000220181309840A105B10558F52B98809193
:10044000230190912401019690932401809323012C
:1004500020912301309124018091030190910401A6
:1004600028173907C1F480911E018F5F80931E0108
:1004700080910301909104018F589D4F9093040146
:100480008093030180911E01843629F410921E018D
:1004900002C02B9AD4CFFF91EF91BF91AF919F9162
:1004A0008F917F916F915F914F913F912F911F910C
:1004B0000F910F900FBE0F901F9018950E94D300C0
:1004C0000E941D0180E092E0A0E0B0E080931F0157
:1004D00090932001A0932101B093220120911E014D
:1004E000C0E0DCE00AE080911F0190912001A09122
:1004F0002101B091220181159446A105B105B8F4FE
:100500008AE68A95F1F700C080911F019091200141
:10051000A0912101B09122010196A11DB11D8093EE
:100520001F0190932001A0932101B093220110910B
:100530001E01211709F465C0111163C08D2F602FB2
:100540000E941003F92E482F50E020E060E070E098
:10055000CB010E9496014F2D50E020E060E070E05A
:1005600080E092E40E9496018C2F602F0E9410037D
:10057000F92E482F50E020E060E070E080EC92E43B
:100580000E9496014F2D50E020E060E070E080E096
:1005900093E40E949601CF5FCC3329F4DF5FC0E083
:1005A000D83109F4D0E08D2F602F0E941003F92E6E
:1005B000482F50E021E060E070E0CB010E949601FE
:1005C0004F2D50E021E060E070E080E092E40E9476
:1005D00096018C2F602F0E941003F92E482F50E0B7
:1005E00021E060E070E080EC92E40E9496014F2DE3
:1005F00050E021E060E070E080E093E40E9496012A
:1006000002C0123310F421E001C020E04AE050E0C3
:1006100060E070E080E892E40E949601212F63CFB1
:10062000991B79E004C0991F961708F0961B881F44
:100630007A95C9F7809508950E94530388F09F57D3
:1006400098F0B92F9927B751B0F0E1F0660F771FF6
:10065000881F991F1AF0BA95C9F714C0B13091F0EC
:100660000E946D03B1E008950C946D03672F782FFD
:100670008827B85F39F0B93FCCF3869577956795B1
:10068000B395D9F73EF490958095709561957F4F1D
:100690008F4F9F4F089557FD9058440F551F59F0A5
:1006A0005F3F71F04795880F97FB991F61F09F3F5F
:1006B00079F087950895121613061406551FF2CF88
:1006C0004695F1DF08C0161617061806991FF1CFD8
:1006D00086957105610508940895E894BB276627FF
:0C06E0007727CB0197F90895F894FFCF1D
:1006EC00808080710200026003B602AB00A0024A57
:0E06FC000355013F065B4F666D7D077F6F80E3
:00000001FF
